{
  "_format": "hh-sol-artifact-1",
  "contractName": "Palamon",
  "sourceName": "contracts/Palamon.sol",
  "abi": [
    {
      "inputs": [
        {
          "internalType": "address",
          "name": "initialOwner",
          "type": "address"
        }
      ],
      "stateMutability": "nonpayable",
      "type": "constructor"
    },
    {
      "inputs": [],
      "name": "ERC721EnumerableForbiddenBatchMint",
      "type": "error"
    },
    {
      "inputs": [
        {
          "internalType": "address",
          "name": "sender",
          "type": "address"
        },
        {
          "internalType": "uint256",
          "name": "tokenId",
          "type": "uint256"
        },
        {
          "internalType": "address",
          "name": "owner",
          "type": "address"
        }
      ],
      "name": "ERC721IncorrectOwner",
      "type": "error"
    },
    {
      "inputs": [
        {
          "internalType": "address",
          "name": "operator",
          "type": "address"
        },
        {
          "internalType": "uint256",
          "name": "tokenId",
          "type": "uint256"
        }
      ],
      "name": "ERC721InsufficientApproval",
      "type": "error"
    },
    {
      "inputs": [
        {
          "internalType": "address",
          "name": "approver",
          "type": "address"
        }
      ],
      "name": "ERC721InvalidApprover",
      "type": "error"
    },
    {
      "inputs": [
        {
          "internalType": "address",
          "name": "operator",
          "type": "address"
        }
      ],
      "name": "ERC721InvalidOperator",
      "type": "error"
    },
    {
      "inputs": [
        {
          "internalType": "address",
          "name": "owner",
          "type": "address"
        }
      ],
      "name": "ERC721InvalidOwner",
      "type": "error"
    },
    {
      "inputs": [
        {
          "internalType": "address",
          "name": "receiver",
          "type": "address"
        }
      ],
      "name": "ERC721InvalidReceiver",
      "type": "error"
    },
    {
      "inputs": [
        {
          "internalType": "address",
          "name": "sender",
          "type": "address"
        }
      ],
      "name": "ERC721InvalidSender",
      "type": "error"
    },
    {
      "inputs": [
        {
          "internalType": "uint256",
          "name": "tokenId",
          "type": "uint256"
        }
      ],
      "name": "ERC721NonexistentToken",
      "type": "error"
    },
    {
      "inputs": [
        {
          "internalType": "address",
          "name": "owner",
          "type": "address"
        },
        {
          "internalType": "uint256",
          "name": "index",
          "type": "uint256"
        }
      ],
      "name": "ERC721OutOfBoundsIndex",
      "type": "error"
    },
    {
      "inputs": [],
      "name": "EnforcedPause",
      "type": "error"
    },
    {
      "inputs": [],
      "name": "ExpectedPause",
      "type": "error"
    },
    {
      "inputs": [
        {
          "internalType": "address",
          "name": "owner",
          "type": "address"
        }
      ],
      "name": "OwnableInvalidOwner",
      "type": "error"
    },
    {
      "inputs": [
        {
          "internalType": "address",
          "name": "account",
          "type": "address"
        }
      ],
      "name": "OwnableUnauthorizedAccount",
      "type": "error"
    },
    {
      "anonymous": false,
      "inputs": [
        {
          "indexed": true,
          "internalType": "address",
          "name": "owner",
          "type": "address"
        },
        {
          "indexed": true,
          "internalType": "address",
          "name": "approved",
          "type": "address"
        },
        {
          "indexed": true,
          "internalType": "uint256",
          "name": "tokenId",
          "type": "uint256"
        }
      ],
      "name": "Approval",
      "type": "event"
    },
    {
      "anonymous": false,
      "inputs": [
        {
          "indexed": true,
          "internalType": "address",
          "name": "owner",
          "type": "address"
        },
        {
          "indexed": true,
          "internalType": "address",
          "name": "operator",
          "type": "address"
        },
        {
          "indexed": false,
          "internalType": "bool",
          "name": "approved",
          "type": "bool"
        }
      ],
      "name": "ApprovalForAll",
      "type": "event"
    },
    {
      "anonymous": false,
      "inputs": [
        {
          "indexed": true,
          "internalType": "address",
          "name": "previousOwner",
          "type": "address"
        },
        {
          "indexed": true,
          "internalType": "address",
          "name": "newOwner",
          "type": "address"
        }
      ],
      "name": "OwnershipTransferred",
      "type": "event"
    },
    {
      "anonymous": false,
      "inputs": [
        {
          "indexed": false,
          "internalType": "address",
          "name": "account",
          "type": "address"
        }
      ],
      "name": "Paused",
      "type": "event"
    },
    {
      "anonymous": false,
      "inputs": [
        {
          "indexed": true,
          "internalType": "address",
          "name": "from",
          "type": "address"
        },
        {
          "indexed": true,
          "internalType": "address",
          "name": "to",
          "type": "address"
        },
        {
          "indexed": true,
          "internalType": "uint256",
          "name": "tokenId",
          "type": "uint256"
        }
      ],
      "name": "Transfer",
      "type": "event"
    },
    {
      "anonymous": false,
      "inputs": [
        {
          "indexed": false,
          "internalType": "address",
          "name": "account",
          "type": "address"
        }
      ],
      "name": "Unpaused",
      "type": "event"
    },
    {
      "anonymous": false,
      "inputs": [
        {
          "indexed": false,
          "internalType": "uint256",
          "name": "valeur",
          "type": "uint256"
        }
      ],
      "name": "VariableLog",
      "type": "event"
    },
    {
      "inputs": [
        {
          "internalType": "address",
          "name": "to",
          "type": "address"
        },
        {
          "internalType": "uint256",
          "name": "tokenId",
          "type": "uint256"
        }
      ],
      "name": "approve",
      "outputs": [],
      "stateMutability": "nonpayable",
      "type": "function"
    },
    {
      "inputs": [
        {
          "internalType": "address",
          "name": "owner",
          "type": "address"
        }
      ],
      "name": "balanceOf",
      "outputs": [
        {
          "internalType": "uint256",
          "name": "",
          "type": "uint256"
        }
      ],
      "stateMutability": "view",
      "type": "function"
    },
    {
      "inputs": [
        {
          "internalType": "address",
          "name": "p1",
          "type": "address"
        },
        {
          "internalType": "address",
          "name": "p2",
          "type": "address"
        },
        {
          "internalType": "uint256",
          "name": "scoreP1",
          "type": "uint256"
        },
        {
          "internalType": "uint256",
          "name": "scoreP2",
          "type": "uint256"
        }
      ],
      "name": "battle",
      "outputs": [
        {
          "internalType": "address",
          "name": "",
          "type": "address"
        }
      ],
      "stateMutability": "nonpayable",
      "type": "function"
    },
    {
      "inputs": [
        {
          "internalType": "bool",
          "name": "_publicMintOpen",
          "type": "bool"
        }
      ],
      "name": "editMintWindows",
      "outputs": [],
      "stateMutability": "nonpayable",
      "type": "function"
    },
    {
      "inputs": [
        {
          "internalType": "uint256",
          "name": "limite",
          "type": "uint256"
        }
      ],
      "name": "genererNombreAleatoire",
      "outputs": [
        {
          "internalType": "uint256",
          "name": "",
          "type": "uint256"
        }
      ],
      "stateMutability": "nonpayable",
      "type": "function"
    },
    {
      "inputs": [],
      "name": "getAllTokens",
      "outputs": [
        {
          "internalType": "uint256[]",
          "name": "",
          "type": "uint256[]"
        }
      ],
      "stateMutability": "view",
      "type": "function"
    },
    {
      "inputs": [
        {
          "internalType": "uint256",
          "name": "tokenId",
          "type": "uint256"
        }
      ],
      "name": "getApproved",
      "outputs": [
        {
          "internalType": "address",
          "name": "",
          "type": "address"
        }
      ],
      "stateMutability": "view",
      "type": "function"
    },
    {
      "inputs": [],
      "name": "getBalance",
      "outputs": [
        {
          "internalType": "uint256",
          "name": "",
          "type": "uint256"
        }
      ],
      "stateMutability": "view",
      "type": "function"
    },
    {
      "inputs": [
        {
          "internalType": "address",
          "name": "owner",
          "type": "address"
        }
      ],
      "name": "getTokensByOwner",
      "outputs": [
        {
          "internalType": "uint256[]",
          "name": "",
          "type": "uint256[]"
        }
      ],
      "stateMutability": "view",
      "type": "function"
    },
    {
      "inputs": [
        {
          "internalType": "address",
          "name": "owner",
          "type": "address"
        },
        {
          "internalType": "address",
          "name": "operator",
          "type": "address"
        }
      ],
      "name": "isApprovedForAll",
      "outputs": [
        {
          "internalType": "bool",
          "name": "",
          "type": "bool"
        }
      ],
      "stateMutability": "view",
      "type": "function"
    },
    {
      "inputs": [],
      "name": "multipleMint",
      "outputs": [],
      "stateMutability": "nonpayable",
      "type": "function"
    },
    {
      "inputs": [],
      "name": "name",
      "outputs": [
        {
          "internalType": "string",
          "name": "",
          "type": "string"
        }
      ],
      "stateMutability": "view",
      "type": "function"
    },
    {
      "inputs": [],
      "name": "owner",
      "outputs": [
        {
          "internalType": "address",
          "name": "",
          "type": "address"
        }
      ],
      "stateMutability": "view",
      "type": "function"
    },
    {
      "inputs": [
        {
          "internalType": "uint256",
          "name": "tokenId",
          "type": "uint256"
        }
      ],
      "name": "ownerOf",
      "outputs": [
        {
          "internalType": "address",
          "name": "",
          "type": "address"
        }
      ],
      "stateMutability": "view",
      "type": "function"
    },
    {
      "inputs": [],
      "name": "pause",
      "outputs": [],
      "stateMutability": "nonpayable",
      "type": "function"
    },
    {
      "inputs": [],
      "name": "paused",
      "outputs": [
        {
          "internalType": "bool",
          "name": "",
          "type": "bool"
        }
      ],
      "stateMutability": "view",
      "type": "function"
    },
    {
      "inputs": [],
      "name": "publicMint",
      "outputs": [],
      "stateMutability": "payable",
      "type": "function"
    },
    {
      "inputs": [],
      "name": "publicMintOpen",
      "outputs": [
        {
          "internalType": "bool",
          "name": "",
          "type": "bool"
        }
      ],
      "stateMutability": "view",
      "type": "function"
    },
    {
      "inputs": [],
      "name": "renounceOwnership",
      "outputs": [],
      "stateMutability": "nonpayable",
      "type": "function"
    },
    {
      "inputs": [
        {
          "internalType": "address",
          "name": "from",
          "type": "address"
        },
        {
          "internalType": "address",
          "name": "to",
          "type": "address"
        },
        {
          "internalType": "uint256",
          "name": "tokenId",
          "type": "uint256"
        }
      ],
      "name": "safeTransferFrom",
      "outputs": [],
      "stateMutability": "nonpayable",
      "type": "function"
    },
    {
      "inputs": [
        {
          "internalType": "address",
          "name": "from",
          "type": "address"
        },
        {
          "internalType": "address",
          "name": "to",
          "type": "address"
        },
        {
          "internalType": "uint256",
          "name": "tokenId",
          "type": "uint256"
        },
        {
          "internalType": "bytes",
          "name": "data",
          "type": "bytes"
        }
      ],
      "name": "safeTransferFrom",
      "outputs": [],
      "stateMutability": "nonpayable",
      "type": "function"
    },
    {
      "inputs": [],
      "name": "seed",
      "outputs": [
        {
          "internalType": "uint256",
          "name": "",
          "type": "uint256"
        }
      ],
      "stateMutability": "view",
      "type": "function"
    },
    {
      "inputs": [
        {
          "internalType": "address",
          "name": "operator",
          "type": "address"
        },
        {
          "internalType": "bool",
          "name": "approved",
          "type": "bool"
        }
      ],
      "name": "setApprovalForAll",
      "outputs": [],
      "stateMutability": "nonpayable",
      "type": "function"
    },
    {
      "inputs": [
        {
          "internalType": "bytes4",
          "name": "interfaceId",
          "type": "bytes4"
        }
      ],
      "name": "supportsInterface",
      "outputs": [
        {
          "internalType": "bool",
          "name": "",
          "type": "bool"
        }
      ],
      "stateMutability": "view",
      "type": "function"
    },
    {
      "inputs": [],
      "name": "symbol",
      "outputs": [
        {
          "internalType": "string",
          "name": "",
          "type": "string"
        }
      ],
      "stateMutability": "view",
      "type": "function"
    },
    {
      "inputs": [
        {
          "internalType": "uint256",
          "name": "index",
          "type": "uint256"
        }
      ],
      "name": "tokenByIndex",
      "outputs": [
        {
          "internalType": "uint256",
          "name": "",
          "type": "uint256"
        }
      ],
      "stateMutability": "view",
      "type": "function"
    },
    {
      "inputs": [
        {
          "internalType": "address",
          "name": "owner",
          "type": "address"
        },
        {
          "internalType": "uint256",
          "name": "index",
          "type": "uint256"
        }
      ],
      "name": "tokenOfOwnerByIndex",
      "outputs": [
        {
          "internalType": "uint256",
          "name": "",
          "type": "uint256"
        }
      ],
      "stateMutability": "view",
      "type": "function"
    },
    {
      "inputs": [
        {
          "internalType": "uint256",
          "name": "tokenId",
          "type": "uint256"
        }
      ],
      "name": "tokenURI",
      "outputs": [
        {
          "internalType": "string",
          "name": "",
          "type": "string"
        }
      ],
      "stateMutability": "view",
      "type": "function"
    },
    {
      "inputs": [],
      "name": "totalSupply",
      "outputs": [
        {
          "internalType": "uint256",
          "name": "",
          "type": "uint256"
        }
      ],
      "stateMutability": "view",
      "type": "function"
    },
    {
      "inputs": [
        {
          "internalType": "address",
          "name": "from",
          "type": "address"
        },
        {
          "internalType": "address",
          "name": "to",
          "type": "address"
        },
        {
          "internalType": "uint256",
          "name": "tokenId",
          "type": "uint256"
        }
      ],
      "name": "transferFrom",
      "outputs": [],
      "stateMutability": "nonpayable",
      "type": "function"
    },
    {
      "inputs": [
        {
          "internalType": "address",
          "name": "newOwner",
          "type": "address"
        }
      ],
      "name": "transferOwnership",
      "outputs": [],
      "stateMutability": "nonpayable",
      "type": "function"
    },
    {
      "inputs": [
        {
          "internalType": "address payable",
          "name": "from",
          "type": "address"
        },
        {
          "internalType": "address payable",
          "name": "to",
          "type": "address"
        },
        {
          "internalType": "uint256",
          "name": "tokenId",
          "type": "uint256"
        },
        {
          "internalType": "uint256",
          "name": "amount",
          "type": "uint256"
        }
      ],
      "name": "transfert",
      "outputs": [],
      "stateMutability": "payable",
      "type": "function"
    },
    {
      "inputs": [],
      "name": "unpause",
      "outputs": [],
      "stateMutability": "nonpayable",
      "type": "function"
    },
    {
      "inputs": [
        {
          "internalType": "address",
          "name": "_addr",
          "type": "address"
        }
      ],
      "name": "withdraw",
      "outputs": [],
      "stateMutability": "payable",
      "type": "function"
    },
    {
      "stateMutability": "payable",
      "type": "receive"
    }
  ],
  "bytecode": "0x6080604052600a600c556001600d60006101000a81548160ff0219169083151502179055503480156200003157600080fd5b5060405162003c4e38038062003c4e8339818101604052810190620000579190620002c3565b806040518060400160405280600781526020017f50616c616d6f6e000000000000000000000000000000000000000000000000008152506040518060400160405280600381526020017f504c4300000000000000000000000000000000000000000000000000000000008152508160009081620000d591906200056f565b508060019081620000e791906200056f565b5050506000600a60006101000a81548160ff021916908315150217905550600073ffffffffffffffffffffffffffffffffffffffff168173ffffffffffffffffffffffffffffffffffffffff16036200017a5760006040517f1e4fbdf700000000000000000000000000000000000000000000000000000000815260040162000171919062000667565b60405180910390fd5b6200018b816200019360201b60201c565b505062000684565b6000600a60019054906101000a900473ffffffffffffffffffffffffffffffffffffffff16905081600a60016101000a81548173ffffffffffffffffffffffffffffffffffffffff021916908373ffffffffffffffffffffffffffffffffffffffff1602179055508173ffffffffffffffffffffffffffffffffffffffff168173ffffffffffffffffffffffffffffffffffffffff167f8be0079c531659141344cd1fd0a4f28419497f9722a3daafe3b4186f6b6457e060405160405180910390a35050565b600080fd5b600073ffffffffffffffffffffffffffffffffffffffff82169050919050565b60006200028b826200025e565b9050919050565b6200029d816200027e565b8114620002a957600080fd5b50565b600081519050620002bd8162000292565b92915050565b600060208284031215620002dc57620002db62000259565b5b6000620002ec84828501620002ac565b91505092915050565b600081519050919050565b7f4e487b7100000000000000000000000000000000000000000000000000000000600052604160045260246000fd5b7f4e487b7100000000000000000000000000000000000000000000000000000000600052602260045260246000fd5b600060028204905060018216806200037757607f821691505b6020821081036200038d576200038c6200032f565b5b50919050565b60008190508160005260206000209050919050565b60006020601f8301049050919050565b600082821b905092915050565b600060088302620003f77fffffffffffffffffffffffffffffffffffffffffffffffffffffffffffffffff82620003b8565b620004038683620003b8565b95508019841693508086168417925050509392505050565b6000819050919050565b6000819050919050565b6000620004506200044a62000444846200041b565b62000425565b6200041b565b9050919050565b6000819050919050565b6200046c836200042f565b620004846200047b8262000457565b848454620003c5565b825550505050565b600090565b6200049b6200048c565b620004a881848462000461565b505050565b5b81811015620004d057620004c460008262000491565b600181019050620004ae565b5050565b601f8211156200051f57620004e98162000393565b620004f484620003a8565b8101602085101562000504578190505b6200051c6200051385620003a8565b830182620004ad565b50505b505050565b600082821c905092915050565b6000620005446000198460080262000524565b1980831691505092915050565b60006200055f838362000531565b9150826002028217905092915050565b6200057a82620002f5565b67ffffffffffffffff81111562000596576200059562000300565b5b620005a282546200035e565b620005af828285620004d4565b600060209050601f831160018114620005e75760008415620005d2578287015190505b620005de858262000551565b8655506200064e565b601f198416620005f78662000393565b60005b828110156200062157848901518255600182019150602085019450602081019050620005fa565b868310156200064157848901516200063d601f89168262000531565b8355505b6001600288020188555050505b505050505050565b62000661816200027e565b82525050565b60006020820190506200067e600083018462000656565b92915050565b6135ba80620006946000396000f3fe6080604052600436106101fd5760003560e01c80636352211e1161010d57806395d89b41116100a0578063bcc9ca5b1161006f578063bcc9ca5b146106dd578063c87b56dd14610708578063e985e9c514610745578063f2fde38b14610782578063fb1c75fd146107ab57610204565b806395d89b4114610623578063a22cb4651461064e578063b54d013614610677578063b88d4fde146106b457610204565b80638307dd45116100dc5780638307dd45146105a15780638456cb59146105b857806386600999146105cf5780638da5cb5b146105f857610204565b80636352211e146104e557806370a0823114610522578063715018a61461055f5780637d94792a1461057657610204565b80632a5c792a1161019057806340398d671161015f57806340398d67146103fb57806342842e0e146104385780634f6ccce71461046157806351cff8d91461049e5780635c975abb146104ba57610204565b80632a5c792a146103605780632f745c591461038b5780633c30fa28146103c85780633f4ba83a146103e457610204565b806312065fe0116101cc57806312065fe0146102d757806318160ddd1461030257806323b872dd1461032d57806326092b831461035657610204565b806301ffc9a71461020957806306fdde0314610246578063081812fc14610271578063095ea7b3146102ae57610204565b3661020457005b600080fd5b34801561021557600080fd5b50610230600480360381019061022b91906128e2565b6107e8565b60405161023d919061292a565b60405180910390f35b34801561025257600080fd5b5061025b6107fa565b60405161026891906129d5565b60405180910390f35b34801561027d57600080fd5b5061029860048036038101906102939190612a2d565b61088c565b6040516102a59190612a9b565b60405180910390f35b3480156102ba57600080fd5b506102d560048036038101906102d09190612ae2565b6108a8565b005b3480156102e357600080fd5b506102ec6108be565b6040516102f99190612b31565b60405180910390f35b34801561030e57600080fd5b506103176108c6565b6040516103249190612b31565b60405180910390f35b34801561033957600080fd5b50610354600480360381019061034f9190612b4c565b6108d3565b005b61035e6109d5565b005b34801561036c57600080fd5b50610375610a97565b6040516103829190612c5d565b60405180910390f35b34801561039757600080fd5b506103b260048036038101906103ad9190612ae2565b610b41565b6040516103bf9190612b31565b60405180910390f35b6103e260048036038101906103dd9190612cbd565b610bea565b005b3480156103f057600080fd5b506103f9610c42565b005b34801561040757600080fd5b50610422600480360381019061041d9190612d24565b610c54565b60405161042f9190612c5d565b60405180910390f35b34801561044457600080fd5b5061045f600480360381019061045a9190612b4c565b610d02565b005b34801561046d57600080fd5b5061048860048036038101906104839190612a2d565b610d22565b6040516104959190612b31565b60405180910390f35b6104b860048036038101906104b39190612d24565b610d98565b005b3480156104c657600080fd5b506104cf610df0565b6040516104dc919061292a565b60405180910390f35b3480156104f157600080fd5b5061050c60048036038101906105079190612a2d565b610e07565b6040516105199190612a9b565b60405180910390f35b34801561052e57600080fd5b5061054960048036038101906105449190612d24565b610e19565b6040516105569190612b31565b60405180910390f35b34801561056b57600080fd5b50610574610ed3565b005b34801561058257600080fd5b5061058b610ee7565b6040516105989190612b31565b60405180910390f35b3480156105ad57600080fd5b506105b6610eed565b005b3480156105c457600080fd5b506105cd610f20565b005b3480156105db57600080fd5b506105f660048036038101906105f19190612d7d565b610f32565b005b34801561060457600080fd5b5061060d610f57565b60405161061a9190612a9b565b60405180910390f35b34801561062f57600080fd5b50610638610f81565b60405161064591906129d5565b60405180910390f35b34801561065a57600080fd5b5061067560048036038101906106709190612daa565b611013565b005b34801561068357600080fd5b5061069e60048036038101906106999190612dea565b611029565b6040516106ab9190612a9b565b60405180910390f35b3480156106c057600080fd5b506106db60048036038101906106d69190612f86565b6110a8565b005b3480156106e957600080fd5b506106f26110c5565b6040516106ff919061292a565b60405180910390f35b34801561071457600080fd5b5061072f600480360381019061072a9190612a2d565b6110d8565b60405161073c91906129d5565b60405180910390f35b34801561075157600080fd5b5061076c60048036038101906107679190613009565b611141565b604051610779919061292a565b60405180910390f35b34801561078e57600080fd5b506107a960048036038101906107a49190612d24565b6111d5565b005b3480156107b757600080fd5b506107d260048036038101906107cd9190612a2d565b61125b565b6040516107df9190612b31565b60405180910390f35b60006107f3826112ab565b9050919050565b60606000805461080990613078565b80601f016020809104026020016040519081016040528092919081815260200182805461083590613078565b80156108825780601f1061085757610100808354040283529160200191610882565b820191906000526020600020905b81548152906001019060200180831161086557829003601f168201915b5050505050905090565b600061089782611325565b506108a1826113ad565b9050919050565b6108ba82826108b56113ea565b6113f2565b5050565b600047905090565b6000600880549050905090565b600073ffffffffffffffffffffffffffffffffffffffff168273ffffffffffffffffffffffffffffffffffffffff16036109455760006040517f64a0ae9200000000000000000000000000000000000000000000000000000000815260040161093c9190612a9b565b60405180910390fd5b600061095983836109546113ea565b611404565b90508373ffffffffffffffffffffffffffffffffffffffff168173ffffffffffffffffffffffffffffffffffffffff16146109cf578382826040517f64283d7b0000000000000000000000000000000000000000000000000000000081526004016109c6939291906130a9565b60405180910390fd5b50505050565b600d60009054906101000a900460ff16610a24576040517f08c379a0000000000000000000000000000000000000000000000000000000008152600401610a1b9061312c565b60405180910390fd5b600c54610a2f6108c6565b10610a6f576040517f08c379a0000000000000000000000000000000000000000000000000000000008152600401610a6690613198565b60405180910390fd5b6000600b6000815480929190610a84906131e7565b919050559050610a94338261141a565b50565b60606000610aa36108c6565b905060008167ffffffffffffffff811115610ac157610ac0612e5b565b5b604051908082528060200260200182016040528015610aef5781602001602082028036833780820191505090505b50905060005b82811015610b3857610b0681610d22565b828281518110610b1957610b1861322f565b5b6020026020010181815250508080610b30906131e7565b915050610af5565b50809250505090565b6000610b4c83610e19565b8210610b915782826040517fa57d13dc000000000000000000000000000000000000000000000000000000008152600401610b8892919061325e565b60405180910390fd5b600660008473ffffffffffffffffffffffffffffffffffffffff1673ffffffffffffffffffffffffffffffffffffffff168152602001908152602001600020600083815260200190815260200160002054905092915050565b8273ffffffffffffffffffffffffffffffffffffffff166108fc829081150290604051600060405180830381858888f19350505050158015610c30573d6000803e3d6000fd5b50610c3c848484610d02565b50505050565b610c4a611438565b610c526114bf565b565b60606000610c6183610e19565b905060008167ffffffffffffffff811115610c7f57610c7e612e5b565b5b604051908082528060200260200182016040528015610cad5781602001602082028036833780820191505090505b50905060005b82811015610cf757610cc58582610b41565b828281518110610cd857610cd761322f565b5b6020026020010181815250508080610cef906131e7565b915050610cb3565b508092505050919050565b610d1d838383604051806020016040528060008152506110a8565b505050565b6000610d2c6108c6565b8210610d72576000826040517fa57d13dc000000000000000000000000000000000000000000000000000000008152600401610d6992919061325e565b60405180910390fd5b60088281548110610d8657610d8561322f565b5b90600052602060002001549050919050565b610da0611438565b60004790508173ffffffffffffffffffffffffffffffffffffffff166108fc829081150290604051600060405180830381858888f19350505050158015610deb573d6000803e3d6000fd5b505050565b6000600a60009054906101000a900460ff16905090565b6000610e1282611325565b9050919050565b60008073ffffffffffffffffffffffffffffffffffffffff168273ffffffffffffffffffffffffffffffffffffffff1603610e8c5760006040517f89c62b64000000000000000000000000000000000000000000000000000000008152600401610e839190612a9b565b60405180910390fd5b600360008373ffffffffffffffffffffffffffffffffffffffff1673ffffffffffffffffffffffffffffffffffffffff168152602001908152602001600020549050919050565b610edb611438565b610ee56000611522565b565b600e5481565b610ef5611438565b60005b600c54811015610f1d57610f0a6109d5565b8080610f15906131e7565b915050610ef8565b50565b610f28611438565b610f306115e8565b565b610f3a611438565b80600d60006101000a81548160ff02191690831515021790555050565b6000600a60019054906101000a900473ffffffffffffffffffffffffffffffffffffffff16905090565b606060018054610f9090613078565b80601f0160208091040260200160405190810160405280929190818152602001828054610fbc90613078565b80156110095780601f10610fde57610100808354040283529160200191611009565b820191906000526020600020905b815481529060010190602001808311610fec57829003601f168201915b5050505050905090565b61102561101e6113ea565b838361164b565b5050565b600061104b6001838561103c9190613287565b6110469190613287565b61125b565b600f819055507ff71f84202aa4efd5ed4cd92c2371a4b65d724449f4dc79a7a2626022e7fb3f4e600f546040516110829190612b31565b60405180910390a182600f54111561109c578390506110a0565b8490505b949350505050565b6110b38484846108d3565b6110bf848484846117ba565b50505050565b600d60009054906101000a900460ff1681565b60606110e382611325565b5060006110ee611971565b9050600081511161110e5760405180602001604052806000815250611139565b8061111884611991565b6040516020016111299291906132f7565b6040516020818303038152906040525b915050919050565b6000600560008473ffffffffffffffffffffffffffffffffffffffff1673ffffffffffffffffffffffffffffffffffffffff16815260200190815260200160002060008373ffffffffffffffffffffffffffffffffffffffff1673ffffffffffffffffffffffffffffffffffffffff16815260200190815260200160002060009054906101000a900460ff16905092915050565b6111dd611438565b600073ffffffffffffffffffffffffffffffffffffffff168173ffffffffffffffffffffffffffffffffffffffff160361124f5760006040517f1e4fbdf70000000000000000000000000000000000000000000000000000000081526004016112469190612a9b565b60405180910390fd5b61125881611522565b50565b6000804442600e546040516020016112759392919061333c565b6040516020818303038152906040528051906020012060001c905080600e8190555082816112a391906133a8565b915050919050565b60007f780e9d63000000000000000000000000000000000000000000000000000000007bffffffffffffffffffffffffffffffffffffffffffffffffffffffff1916827bffffffffffffffffffffffffffffffffffffffffffffffffffffffff1916148061131e575061131d82611a5f565b5b9050919050565b60008061133183611b41565b9050600073ffffffffffffffffffffffffffffffffffffffff168173ffffffffffffffffffffffffffffffffffffffff16036113a457826040517f7e27328900000000000000000000000000000000000000000000000000000000815260040161139b9190612b31565b60405180910390fd5b80915050919050565b60006004600083815260200190815260200160002060009054906101000a900473ffffffffffffffffffffffffffffffffffffffff169050919050565b600033905090565b6113ff8383836001611b7e565b505050565b6000611411848484611d43565b90509392505050565b611434828260405180602001604052806000815250611d61565b5050565b6114406113ea565b73ffffffffffffffffffffffffffffffffffffffff1661145e610f57565b73ffffffffffffffffffffffffffffffffffffffff16146114bd576114816113ea565b6040517f118cdaa70000000000000000000000000000000000000000000000000000000081526004016114b49190612a9b565b60405180910390fd5b565b6114c7611d7d565b6000600a60006101000a81548160ff0219169083151502179055507f5db9ee0a495bf2e6ff9c91a7834c1ba4fdd244a5e8aa4e537bd38aeae4b073aa61150b6113ea565b6040516115189190612a9b565b60405180910390a1565b6000600a60019054906101000a900473ffffffffffffffffffffffffffffffffffffffff16905081600a60016101000a81548173ffffffffffffffffffffffffffffffffffffffff021916908373ffffffffffffffffffffffffffffffffffffffff1602179055508173ffffffffffffffffffffffffffffffffffffffff168173ffffffffffffffffffffffffffffffffffffffff167f8be0079c531659141344cd1fd0a4f28419497f9722a3daafe3b4186f6b6457e060405160405180910390a35050565b6115f0611dbd565b6001600a60006101000a81548160ff0219169083151502179055507f62e78cea01bee320cd4e420270b5ea74000d11b0c9f74754ebdbfc544b05a2586116346113ea565b6040516116419190612a9b565b60405180910390a1565b600073ffffffffffffffffffffffffffffffffffffffff168273ffffffffffffffffffffffffffffffffffffffff16036116bc57816040517f5b08ba180000000000000000000000000000000000000000000000000000000081526004016116b39190612a9b565b60405180910390fd5b80600560008573ffffffffffffffffffffffffffffffffffffffff1673ffffffffffffffffffffffffffffffffffffffff16815260200190815260200160002060008473ffffffffffffffffffffffffffffffffffffffff1673ffffffffffffffffffffffffffffffffffffffff16815260200190815260200160002060006101000a81548160ff0219169083151502179055508173ffffffffffffffffffffffffffffffffffffffff168373ffffffffffffffffffffffffffffffffffffffff167f17307eab39ab6107e8899845ad3d59bd9653f200f220920489ca2b5937696c31836040516117ad919061292a565b60405180910390a3505050565b60008373ffffffffffffffffffffffffffffffffffffffff163b111561196b578273ffffffffffffffffffffffffffffffffffffffff1663150b7a026117fe6113ea565b8685856040518563ffffffff1660e01b8152600401611820949392919061342e565b6020604051808303816000875af192505050801561185c57506040513d601f19601f82011682018060405250810190611859919061348f565b60015b6118e0573d806000811461188c576040519150601f19603f3d011682016040523d82523d6000602084013e611891565b606091505b5060008151036118d857836040517f64a0ae920000000000000000000000000000000000000000000000000000000081526004016118cf9190612a9b565b60405180910390fd5b805181602001fd5b63150b7a0260e01b7bffffffffffffffffffffffffffffffffffffffffffffffffffffffff1916817bffffffffffffffffffffffffffffffffffffffffffffffffffffffff19161461196957836040517f64a0ae920000000000000000000000000000000000000000000000000000000081526004016119609190612a9b565b60405180910390fd5b505b50505050565b60606040518060a001604052806065815260200161352060659139905090565b6060600060016119a084611dfe565b01905060008167ffffffffffffffff8111156119bf576119be612e5b565b5b6040519080825280601f01601f1916602001820160405280156119f15781602001600182028036833780820191505090505b509050600082602001820190505b600115611a54578080600190039150507f3031323334353637383961626364656600000000000000000000000000000000600a86061a8153600a8581611a4857611a47613379565b5b049450600085036119ff575b819350505050919050565b60007f80ac58cd000000000000000000000000000000000000000000000000000000007bffffffffffffffffffffffffffffffffffffffffffffffffffffffff1916827bffffffffffffffffffffffffffffffffffffffffffffffffffffffff19161480611b2a57507f5b5e139f000000000000000000000000000000000000000000000000000000007bffffffffffffffffffffffffffffffffffffffffffffffffffffffff1916827bffffffffffffffffffffffffffffffffffffffffffffffffffffffff1916145b80611b3a5750611b3982611f51565b5b9050919050565b60006002600083815260200190815260200160002060009054906101000a900473ffffffffffffffffffffffffffffffffffffffff169050919050565b8080611bb75750600073ffffffffffffffffffffffffffffffffffffffff168273ffffffffffffffffffffffffffffffffffffffff1614155b15611ceb576000611bc784611325565b9050600073ffffffffffffffffffffffffffffffffffffffff168373ffffffffffffffffffffffffffffffffffffffff1614158015611c3257508273ffffffffffffffffffffffffffffffffffffffff168173ffffffffffffffffffffffffffffffffffffffff1614155b8015611c455750611c438184611141565b155b15611c8757826040517fa9fbf51f000000000000000000000000000000000000000000000000000000008152600401611c7e9190612a9b565b60405180910390fd5b8115611ce957838573ffffffffffffffffffffffffffffffffffffffff168273ffffffffffffffffffffffffffffffffffffffff167f8c5be1e5ebec7d5bd14f71427d1e84f3dd0314c0f7b2291e5b200ac8c7c3b92560405160405180910390a45b505b836004600085815260200190815260200160002060006101000a81548173ffffffffffffffffffffffffffffffffffffffff021916908373ffffffffffffffffffffffffffffffffffffffff16021790555050505050565b6000611d4d611dbd565b611d58848484611fbb565b90509392505050565b611d6b83836120d8565b611d7860008484846117ba565b505050565b611d85610df0565b611dbb576040517f8dfc202b00000000000000000000000000000000000000000000000000000000815260040160405180910390fd5b565b611dc5610df0565b15611dfc576040517fd93c066500000000000000000000000000000000000000000000000000000000815260040160405180910390fd5b565b600080600090507a184f03e93ff9f4daa797ed6e38ed64bf6a1f0100000000000000008310611e5c577a184f03e93ff9f4daa797ed6e38ed64bf6a1f0100000000000000008381611e5257611e51613379565b5b0492506040810190505b6d04ee2d6d415b85acef81000000008310611e99576d04ee2d6d415b85acef81000000008381611e8f57611e8e613379565b5b0492506020810190505b662386f26fc100008310611ec857662386f26fc100008381611ebe57611ebd613379565b5b0492506010810190505b6305f5e1008310611ef1576305f5e1008381611ee757611ee6613379565b5b0492506008810190505b6127108310611f16576127108381611f0c57611f0b613379565b5b0492506004810190505b60648310611f395760648381611f2f57611f2e613379565b5b0492506002810190505b600a8310611f48576001810190505b80915050919050565b60007f01ffc9a7000000000000000000000000000000000000000000000000000000007bffffffffffffffffffffffffffffffffffffffffffffffffffffffff1916827bffffffffffffffffffffffffffffffffffffffffffffffffffffffff1916149050919050565b600080611fc98585856121d1565b9050600073ffffffffffffffffffffffffffffffffffffffff168173ffffffffffffffffffffffffffffffffffffffff160361200d57612008846123eb565b61204c565b8473ffffffffffffffffffffffffffffffffffffffff168173ffffffffffffffffffffffffffffffffffffffff161461204b5761204a8185612434565b5b5b600073ffffffffffffffffffffffffffffffffffffffff168573ffffffffffffffffffffffffffffffffffffffff160361208e5761208984612595565b6120cd565b8473ffffffffffffffffffffffffffffffffffffffff168173ffffffffffffffffffffffffffffffffffffffff16146120cc576120cb8585612666565b5b5b809150509392505050565b600073ffffffffffffffffffffffffffffffffffffffff168273ffffffffffffffffffffffffffffffffffffffff160361214a5760006040517f64a0ae920000000000000000000000000000000000000000000000000000000081526004016121419190612a9b565b60405180910390fd5b600061215883836000611404565b9050600073ffffffffffffffffffffffffffffffffffffffff168173ffffffffffffffffffffffffffffffffffffffff16146121cc5760006040517f73c6ac6e0000000000000000000000000000000000000000000000000000000081526004016121c39190612a9b565b60405180910390fd5b505050565b6000806121dd84611b41565b9050600073ffffffffffffffffffffffffffffffffffffffff168373ffffffffffffffffffffffffffffffffffffffff161461221f5761221e8184866126f1565b5b600073ffffffffffffffffffffffffffffffffffffffff168173ffffffffffffffffffffffffffffffffffffffff16146122b057612261600085600080611b7e565b6001600360008373ffffffffffffffffffffffffffffffffffffffff1673ffffffffffffffffffffffffffffffffffffffff168152602001908152602001600020600082825403925050819055505b600073ffffffffffffffffffffffffffffffffffffffff168573ffffffffffffffffffffffffffffffffffffffff1614612333576001600360008773ffffffffffffffffffffffffffffffffffffffff1673ffffffffffffffffffffffffffffffffffffffff168152602001908152602001600020600082825401925050819055505b846002600086815260200190815260200160002060006101000a81548173ffffffffffffffffffffffffffffffffffffffff021916908373ffffffffffffffffffffffffffffffffffffffff160217905550838573ffffffffffffffffffffffffffffffffffffffff168273ffffffffffffffffffffffffffffffffffffffff167fddf252ad1be2c89b69c2b068fc378daa952ba7f163c4a11628f55a4df523b3ef60405160405180910390a4809150509392505050565b6008805490506009600083815260200190815260200160002081905550600881908060018154018082558091505060019003906000526020600020016000909190919091505550565b600061243f83610e19565b9050600060076000848152602001908152602001600020549050818114612524576000600660008673ffffffffffffffffffffffffffffffffffffffff1673ffffffffffffffffffffffffffffffffffffffff168152602001908152602001600020600084815260200190815260200160002054905080600660008773ffffffffffffffffffffffffffffffffffffffff1673ffffffffffffffffffffffffffffffffffffffff168152602001908152602001600020600084815260200190815260200160002081905550816007600083815260200190815260200160002081905550505b6007600084815260200190815260200160002060009055600660008573ffffffffffffffffffffffffffffffffffffffff1673ffffffffffffffffffffffffffffffffffffffff16815260200190815260200160002060008381526020019081526020016000206000905550505050565b600060016008805490506125a991906134bc565b90506000600960008481526020019081526020016000205490506000600883815481106125d9576125d861322f565b5b9060005260206000200154905080600883815481106125fb576125fa61322f565b5b90600052602060002001819055508160096000838152602001908152602001600020819055506009600085815260200190815260200160002060009055600880548061264a576126496134f0565b5b6001900381819060005260206000200160009055905550505050565b6000600161267384610e19565b61267d91906134bc565b905081600660008573ffffffffffffffffffffffffffffffffffffffff1673ffffffffffffffffffffffffffffffffffffffff168152602001908152602001600020600083815260200190815260200160002081905550806007600084815260200190815260200160002081905550505050565b6126fc8383836127b5565b6127b057600073ffffffffffffffffffffffffffffffffffffffff168373ffffffffffffffffffffffffffffffffffffffff160361277157806040517f7e2732890000000000000000000000000000000000000000000000000000000081526004016127689190612b31565b60405180910390fd5b81816040517f177e802f0000000000000000000000000000000000000000000000000000000081526004016127a792919061325e565b60405180910390fd5b505050565b60008073ffffffffffffffffffffffffffffffffffffffff168373ffffffffffffffffffffffffffffffffffffffff161415801561286d57508273ffffffffffffffffffffffffffffffffffffffff168473ffffffffffffffffffffffffffffffffffffffff16148061282e575061282d8484611141565b5b8061286c57508273ffffffffffffffffffffffffffffffffffffffff16612854836113ad565b73ffffffffffffffffffffffffffffffffffffffff16145b5b90509392505050565b6000604051905090565b600080fd5b600080fd5b60007fffffffff0000000000000000000000000000000000000000000000000000000082169050919050565b6128bf8161288a565b81146128ca57600080fd5b50565b6000813590506128dc816128b6565b92915050565b6000602082840312156128f8576128f7612880565b5b6000612906848285016128cd565b91505092915050565b60008115159050919050565b6129248161290f565b82525050565b600060208201905061293f600083018461291b565b92915050565b600081519050919050565b600082825260208201905092915050565b60005b8381101561297f578082015181840152602081019050612964565b60008484015250505050565b6000601f19601f8301169050919050565b60006129a782612945565b6129b18185612950565b93506129c1818560208601612961565b6129ca8161298b565b840191505092915050565b600060208201905081810360008301526129ef818461299c565b905092915050565b6000819050919050565b612a0a816129f7565b8114612a1557600080fd5b50565b600081359050612a2781612a01565b92915050565b600060208284031215612a4357612a42612880565b5b6000612a5184828501612a18565b91505092915050565b600073ffffffffffffffffffffffffffffffffffffffff82169050919050565b6000612a8582612a5a565b9050919050565b612a9581612a7a565b82525050565b6000602082019050612ab06000830184612a8c565b92915050565b612abf81612a7a565b8114612aca57600080fd5b50565b600081359050612adc81612ab6565b92915050565b60008060408385031215612af957612af8612880565b5b6000612b0785828601612acd565b9250506020612b1885828601612a18565b9150509250929050565b612b2b816129f7565b82525050565b6000602082019050612b466000830184612b22565b92915050565b600080600060608486031215612b6557612b64612880565b5b6000612b7386828701612acd565b9350506020612b8486828701612acd565b9250506040612b9586828701612a18565b9150509250925092565b600081519050919050565b600082825260208201905092915050565b6000819050602082019050919050565b612bd4816129f7565b82525050565b6000612be68383612bcb565b60208301905092915050565b6000602082019050919050565b6000612c0a82612b9f565b612c148185612baa565b9350612c1f83612bbb565b8060005b83811015612c50578151612c378882612bda565b9750612c4283612bf2565b925050600181019050612c23565b5085935050505092915050565b60006020820190508181036000830152612c778184612bff565b905092915050565b6000612c8a82612a5a565b9050919050565b612c9a81612c7f565b8114612ca557600080fd5b50565b600081359050612cb781612c91565b92915050565b60008060008060808587031215612cd757612cd6612880565b5b6000612ce587828801612ca8565b9450506020612cf687828801612ca8565b9350506040612d0787828801612a18565b9250506060612d1887828801612a18565b91505092959194509250565b600060208284031215612d3a57612d39612880565b5b6000612d4884828501612acd565b91505092915050565b612d5a8161290f565b8114612d6557600080fd5b50565b600081359050612d7781612d51565b92915050565b600060208284031215612d9357612d92612880565b5b6000612da184828501612d68565b91505092915050565b60008060408385031215612dc157612dc0612880565b5b6000612dcf85828601612acd565b9250506020612de085828601612d68565b9150509250929050565b60008060008060808587031215612e0457612e03612880565b5b6000612e1287828801612acd565b9450506020612e2387828801612acd565b9350506040612e3487828801612a18565b9250506060612e4587828801612a18565b91505092959194509250565b600080fd5b600080fd5b7f4e487b7100000000000000000000000000000000000000000000000000000000600052604160045260246000fd5b612e938261298b565b810181811067ffffffffffffffff82111715612eb257612eb1612e5b565b5b80604052505050565b6000612ec5612876565b9050612ed18282612e8a565b919050565b600067ffffffffffffffff821115612ef157612ef0612e5b565b5b612efa8261298b565b9050602081019050919050565b82818337600083830152505050565b6000612f29612f2484612ed6565b612ebb565b905082815260208101848484011115612f4557612f44612e56565b5b612f50848285612f07565b509392505050565b600082601f830112612f6d57612f6c612e51565b5b8135612f7d848260208601612f16565b91505092915050565b60008060008060808587031215612fa057612f9f612880565b5b6000612fae87828801612acd565b9450506020612fbf87828801612acd565b9350506040612fd087828801612a18565b925050606085013567ffffffffffffffff811115612ff157612ff0612885565b5b612ffd87828801612f58565b91505092959194509250565b600080604083850312156130205761301f612880565b5b600061302e85828601612acd565b925050602061303f85828601612acd565b9150509250929050565b7f4e487b7100000000000000000000000000000000000000000000000000000000600052602260045260246000fd5b6000600282049050600182168061309057607f821691505b6020821081036130a3576130a2613049565b5b50919050565b60006060820190506130be6000830186612a8c565b6130cb6020830185612b22565b6130d86040830184612a8c565b949350505050565b7f4d696e7420696d706f737369626c6520706f7572206c65206d6f6d656e742e00600082015250565b6000613116601f83612950565b9150613121826130e0565b602082019050919050565b6000602082019050818103600083015261314581613109565b9050919050565b7f4c696d697465206d6178696d616c652061747465696e74652e00000000000000600082015250565b6000613182601983612950565b915061318d8261314c565b602082019050919050565b600060208201905081810360008301526131b181613175565b9050919050565b7f4e487b7100000000000000000000000000000000000000000000000000000000600052601160045260246000fd5b60006131f2826129f7565b91507fffffffffffffffffffffffffffffffffffffffffffffffffffffffffffffffff8203613224576132236131b8565b5b600182019050919050565b7f4e487b7100000000000000000000000000000000000000000000000000000000600052603260045260246000fd5b60006040820190506132736000830185612a8c565b6132806020830184612b22565b9392505050565b6000613292826129f7565b915061329d836129f7565b92508282019050808211156132b5576132b46131b8565b5b92915050565b600081905092915050565b60006132d182612945565b6132db81856132bb565b93506132eb818560208601612961565b80840191505092915050565b600061330382856132c6565b915061330f82846132c6565b91508190509392505050565b6000819050919050565b613336613331826129f7565b61331b565b82525050565b60006133488286613325565b6020820191506133588285613325565b6020820191506133688284613325565b602082019150819050949350505050565b7f4e487b7100000000000000000000000000000000000000000000000000000000600052601260045260246000fd5b60006133b3826129f7565b91506133be836129f7565b9250826133ce576133cd613379565b5b828206905092915050565b600081519050919050565b600082825260208201905092915050565b6000613400826133d9565b61340a81856133e4565b935061341a818560208601612961565b6134238161298b565b840191505092915050565b60006080820190506134436000830187612a8c565b6134506020830186612a8c565b61345d6040830185612b22565b818103606083015261346f81846133f5565b905095945050505050565b600081519050613489816128b6565b92915050565b6000602082840312156134a5576134a4612880565b5b60006134b38482850161347a565b91505092915050565b60006134c7826129f7565b91506134d2836129f7565b92508282039050818111156134ea576134e96131b8565b5b92915050565b7f4e487b7100000000000000000000000000000000000000000000000000000000600052603160045260246000fdfe68747470733a2f2f73616c6d6f6e2d696d707265737365642d7377616e2d3831332e6d7970696e6174612e636c6f75642f697066732f516d52716d4b5a4b446657326e6a6a6b47357637745a536743757163374b336a4a437279594133456159624177772fa264697066735822122002fcd63de8f399bdc2f307341eb500179d6dd496c39bb94d528f10e5388805e264736f6c63430008140033",
  "linkReferences": {},
  "deployedLinkReferences": {}
}