{
  "_format": "hh-sol-artifact-1",
  "contractName": "Palamon",
  "sourceName": "contracts/Palamon.sol",
  "abi": [
    {
      "inputs": [
        {
          "internalType": "address",
          "name": "initialOwner",
          "type": "address"
        }
      ],
      "stateMutability": "nonpayable",
      "type": "constructor"
    },
    {
      "inputs": [],
      "name": "ERC721EnumerableForbiddenBatchMint",
      "type": "error"
    },
    {
      "inputs": [
        {
          "internalType": "address",
          "name": "sender",
          "type": "address"
        },
        {
          "internalType": "uint256",
          "name": "tokenId",
          "type": "uint256"
        },
        {
          "internalType": "address",
          "name": "owner",
          "type": "address"
        }
      ],
      "name": "ERC721IncorrectOwner",
      "type": "error"
    },
    {
      "inputs": [
        {
          "internalType": "address",
          "name": "operator",
          "type": "address"
        },
        {
          "internalType": "uint256",
          "name": "tokenId",
          "type": "uint256"
        }
      ],
      "name": "ERC721InsufficientApproval",
      "type": "error"
    },
    {
      "inputs": [
        {
          "internalType": "address",
          "name": "approver",
          "type": "address"
        }
      ],
      "name": "ERC721InvalidApprover",
      "type": "error"
    },
    {
      "inputs": [
        {
          "internalType": "address",
          "name": "operator",
          "type": "address"
        }
      ],
      "name": "ERC721InvalidOperator",
      "type": "error"
    },
    {
      "inputs": [
        {
          "internalType": "address",
          "name": "owner",
          "type": "address"
        }
      ],
      "name": "ERC721InvalidOwner",
      "type": "error"
    },
    {
      "inputs": [
        {
          "internalType": "address",
          "name": "receiver",
          "type": "address"
        }
      ],
      "name": "ERC721InvalidReceiver",
      "type": "error"
    },
    {
      "inputs": [
        {
          "internalType": "address",
          "name": "sender",
          "type": "address"
        }
      ],
      "name": "ERC721InvalidSender",
      "type": "error"
    },
    {
      "inputs": [
        {
          "internalType": "uint256",
          "name": "tokenId",
          "type": "uint256"
        }
      ],
      "name": "ERC721NonexistentToken",
      "type": "error"
    },
    {
      "inputs": [
        {
          "internalType": "address",
          "name": "owner",
          "type": "address"
        },
        {
          "internalType": "uint256",
          "name": "index",
          "type": "uint256"
        }
      ],
      "name": "ERC721OutOfBoundsIndex",
      "type": "error"
    },
    {
      "inputs": [],
      "name": "EnforcedPause",
      "type": "error"
    },
    {
      "inputs": [],
      "name": "ExpectedPause",
      "type": "error"
    },
    {
      "inputs": [
        {
          "internalType": "address",
          "name": "owner",
          "type": "address"
        }
      ],
      "name": "OwnableInvalidOwner",
      "type": "error"
    },
    {
      "inputs": [
        {
          "internalType": "address",
          "name": "account",
          "type": "address"
        }
      ],
      "name": "OwnableUnauthorizedAccount",
      "type": "error"
    },
    {
      "anonymous": false,
      "inputs": [
        {
          "indexed": true,
          "internalType": "address",
          "name": "owner",
          "type": "address"
        },
        {
          "indexed": true,
          "internalType": "address",
          "name": "approved",
          "type": "address"
        },
        {
          "indexed": true,
          "internalType": "uint256",
          "name": "tokenId",
          "type": "uint256"
        }
      ],
      "name": "Approval",
      "type": "event"
    },
    {
      "anonymous": false,
      "inputs": [
        {
          "indexed": true,
          "internalType": "address",
          "name": "owner",
          "type": "address"
        },
        {
          "indexed": true,
          "internalType": "address",
          "name": "operator",
          "type": "address"
        },
        {
          "indexed": false,
          "internalType": "bool",
          "name": "approved",
          "type": "bool"
        }
      ],
      "name": "ApprovalForAll",
      "type": "event"
    },
    {
      "anonymous": false,
      "inputs": [
        {
          "indexed": true,
          "internalType": "address",
          "name": "previousOwner",
          "type": "address"
        },
        {
          "indexed": true,
          "internalType": "address",
          "name": "newOwner",
          "type": "address"
        }
      ],
      "name": "OwnershipTransferred",
      "type": "event"
    },
    {
      "anonymous": false,
      "inputs": [
        {
          "indexed": false,
          "internalType": "address",
          "name": "account",
          "type": "address"
        }
      ],
      "name": "Paused",
      "type": "event"
    },
    {
      "anonymous": false,
      "inputs": [
        {
          "indexed": true,
          "internalType": "address",
          "name": "from",
          "type": "address"
        },
        {
          "indexed": true,
          "internalType": "address",
          "name": "to",
          "type": "address"
        },
        {
          "indexed": true,
          "internalType": "uint256",
          "name": "tokenId",
          "type": "uint256"
        }
      ],
      "name": "Transfer",
      "type": "event"
    },
    {
      "anonymous": false,
      "inputs": [
        {
          "indexed": false,
          "internalType": "address",
          "name": "account",
          "type": "address"
        }
      ],
      "name": "Unpaused",
      "type": "event"
    },
    {
      "inputs": [
        {
          "internalType": "address",
          "name": "to",
          "type": "address"
        },
        {
          "internalType": "uint256",
          "name": "tokenId",
          "type": "uint256"
        }
      ],
      "name": "approve",
      "outputs": [],
      "stateMutability": "nonpayable",
      "type": "function"
    },
    {
      "inputs": [
        {
          "internalType": "address",
          "name": "owner",
          "type": "address"
        }
      ],
      "name": "balanceOf",
      "outputs": [
        {
          "internalType": "uint256",
          "name": "",
          "type": "uint256"
        }
      ],
      "stateMutability": "view",
      "type": "function"
    },
    {
      "inputs": [
        {
          "internalType": "bool",
          "name": "_publicMintOpen",
          "type": "bool"
        }
      ],
      "name": "editMintWindows",
      "outputs": [],
      "stateMutability": "nonpayable",
      "type": "function"
    },
    {
      "inputs": [],
      "name": "getAllTokens",
      "outputs": [
        {
          "internalType": "uint256[]",
          "name": "",
          "type": "uint256[]"
        }
      ],
      "stateMutability": "view",
      "type": "function"
    },
    {
      "inputs": [
        {
          "internalType": "uint256",
          "name": "tokenId",
          "type": "uint256"
        }
      ],
      "name": "getApproved",
      "outputs": [
        {
          "internalType": "address",
          "name": "",
          "type": "address"
        }
      ],
      "stateMutability": "view",
      "type": "function"
    },
    {
      "inputs": [
        {
          "internalType": "address",
          "name": "owner",
          "type": "address"
        }
      ],
      "name": "getTokensByOwner",
      "outputs": [
        {
          "internalType": "uint256[]",
          "name": "",
          "type": "uint256[]"
        }
      ],
      "stateMutability": "view",
      "type": "function"
    },
    {
      "inputs": [
        {
          "internalType": "address",
          "name": "owner",
          "type": "address"
        },
        {
          "internalType": "address",
          "name": "operator",
          "type": "address"
        }
      ],
      "name": "isApprovedForAll",
      "outputs": [
        {
          "internalType": "bool",
          "name": "",
          "type": "bool"
        }
      ],
      "stateMutability": "view",
      "type": "function"
    },
    {
      "inputs": [
        {
          "internalType": "uint256",
          "name": "num",
          "type": "uint256"
        }
      ],
      "name": "multipleMint",
      "outputs": [],
      "stateMutability": "nonpayable",
      "type": "function"
    },
    {
      "inputs": [],
      "name": "name",
      "outputs": [
        {
          "internalType": "string",
          "name": "",
          "type": "string"
        }
      ],
      "stateMutability": "view",
      "type": "function"
    },
    {
      "inputs": [],
      "name": "owner",
      "outputs": [
        {
          "internalType": "address",
          "name": "",
          "type": "address"
        }
      ],
      "stateMutability": "view",
      "type": "function"
    },
    {
      "inputs": [
        {
          "internalType": "uint256",
          "name": "tokenId",
          "type": "uint256"
        }
      ],
      "name": "ownerOf",
      "outputs": [
        {
          "internalType": "address",
          "name": "",
          "type": "address"
        }
      ],
      "stateMutability": "view",
      "type": "function"
    },
    {
      "inputs": [],
      "name": "pause",
      "outputs": [],
      "stateMutability": "nonpayable",
      "type": "function"
    },
    {
      "inputs": [],
      "name": "paused",
      "outputs": [
        {
          "internalType": "bool",
          "name": "",
          "type": "bool"
        }
      ],
      "stateMutability": "view",
      "type": "function"
    },
    {
      "inputs": [],
      "name": "publicMint",
      "outputs": [],
      "stateMutability": "payable",
      "type": "function"
    },
    {
      "inputs": [],
      "name": "publicMintOpen",
      "outputs": [
        {
          "internalType": "bool",
          "name": "",
          "type": "bool"
        }
      ],
      "stateMutability": "view",
      "type": "function"
    },
    {
      "inputs": [],
      "name": "renounceOwnership",
      "outputs": [],
      "stateMutability": "nonpayable",
      "type": "function"
    },
    {
      "inputs": [
        {
          "internalType": "address",
          "name": "from",
          "type": "address"
        },
        {
          "internalType": "address",
          "name": "to",
          "type": "address"
        },
        {
          "internalType": "uint256",
          "name": "tokenId",
          "type": "uint256"
        }
      ],
      "name": "safeTransferFrom",
      "outputs": [],
      "stateMutability": "nonpayable",
      "type": "function"
    },
    {
      "inputs": [
        {
          "internalType": "address",
          "name": "from",
          "type": "address"
        },
        {
          "internalType": "address",
          "name": "to",
          "type": "address"
        },
        {
          "internalType": "uint256",
          "name": "tokenId",
          "type": "uint256"
        },
        {
          "internalType": "bytes",
          "name": "data",
          "type": "bytes"
        }
      ],
      "name": "safeTransferFrom",
      "outputs": [],
      "stateMutability": "nonpayable",
      "type": "function"
    },
    {
      "inputs": [
        {
          "internalType": "address",
          "name": "operator",
          "type": "address"
        },
        {
          "internalType": "bool",
          "name": "approved",
          "type": "bool"
        }
      ],
      "name": "setApprovalForAll",
      "outputs": [],
      "stateMutability": "nonpayable",
      "type": "function"
    },
    {
      "inputs": [
        {
          "internalType": "bytes4",
          "name": "interfaceId",
          "type": "bytes4"
        }
      ],
      "name": "supportsInterface",
      "outputs": [
        {
          "internalType": "bool",
          "name": "",
          "type": "bool"
        }
      ],
      "stateMutability": "view",
      "type": "function"
    },
    {
      "inputs": [],
      "name": "symbol",
      "outputs": [
        {
          "internalType": "string",
          "name": "",
          "type": "string"
        }
      ],
      "stateMutability": "view",
      "type": "function"
    },
    {
      "inputs": [
        {
          "internalType": "uint256",
          "name": "index",
          "type": "uint256"
        }
      ],
      "name": "tokenByIndex",
      "outputs": [
        {
          "internalType": "uint256",
          "name": "",
          "type": "uint256"
        }
      ],
      "stateMutability": "view",
      "type": "function"
    },
    {
      "inputs": [
        {
          "internalType": "address",
          "name": "owner",
          "type": "address"
        },
        {
          "internalType": "uint256",
          "name": "index",
          "type": "uint256"
        }
      ],
      "name": "tokenOfOwnerByIndex",
      "outputs": [
        {
          "internalType": "uint256",
          "name": "",
          "type": "uint256"
        }
      ],
      "stateMutability": "view",
      "type": "function"
    },
    {
      "inputs": [
        {
          "internalType": "uint256",
          "name": "tokenId",
          "type": "uint256"
        }
      ],
      "name": "tokenURI",
      "outputs": [
        {
          "internalType": "string",
          "name": "",
          "type": "string"
        }
      ],
      "stateMutability": "view",
      "type": "function"
    },
    {
      "inputs": [],
      "name": "totalSupply",
      "outputs": [
        {
          "internalType": "uint256",
          "name": "",
          "type": "uint256"
        }
      ],
      "stateMutability": "view",
      "type": "function"
    },
    {
      "inputs": [
        {
          "internalType": "address",
          "name": "from",
          "type": "address"
        },
        {
          "internalType": "address",
          "name": "to",
          "type": "address"
        },
        {
          "internalType": "uint256",
          "name": "tokenId",
          "type": "uint256"
        }
      ],
      "name": "transferFrom",
      "outputs": [],
      "stateMutability": "nonpayable",
      "type": "function"
    },
    {
      "inputs": [
        {
          "internalType": "address",
          "name": "newOwner",
          "type": "address"
        }
      ],
      "name": "transferOwnership",
      "outputs": [],
      "stateMutability": "nonpayable",
      "type": "function"
    },
    {
      "inputs": [],
      "name": "unpause",
      "outputs": [],
      "stateMutability": "nonpayable",
      "type": "function"
    },
    {
      "inputs": [
        {
          "internalType": "address",
          "name": "_addr",
          "type": "address"
        }
      ],
      "name": "withdraw",
      "outputs": [],
      "stateMutability": "nonpayable",
      "type": "function"
    }
  ],
  "bytecode": "0x60806040526064600c556001600d60006101000a81548160ff0219169083151502179055503480156200003157600080fd5b506040516200380b3803806200380b8339818101604052810190620000579190620002c3565b806040518060400160405280600781526020017f50616c616d6f6e000000000000000000000000000000000000000000000000008152506040518060400160405280600381526020017f504c4300000000000000000000000000000000000000000000000000000000008152508160009081620000d591906200056f565b508060019081620000e791906200056f565b5050506000600a60006101000a81548160ff021916908315150217905550600073ffffffffffffffffffffffffffffffffffffffff168173ffffffffffffffffffffffffffffffffffffffff16036200017a5760006040517f1e4fbdf700000000000000000000000000000000000000000000000000000000815260040162000171919062000667565b60405180910390fd5b6200018b816200019360201b60201c565b505062000684565b6000600a60019054906101000a900473ffffffffffffffffffffffffffffffffffffffff16905081600a60016101000a81548173ffffffffffffffffffffffffffffffffffffffff021916908373ffffffffffffffffffffffffffffffffffffffff1602179055508173ffffffffffffffffffffffffffffffffffffffff168173ffffffffffffffffffffffffffffffffffffffff167f8be0079c531659141344cd1fd0a4f28419497f9722a3daafe3b4186f6b6457e060405160405180910390a35050565b600080fd5b600073ffffffffffffffffffffffffffffffffffffffff82169050919050565b60006200028b826200025e565b9050919050565b6200029d816200027e565b8114620002a957600080fd5b50565b600081519050620002bd8162000292565b92915050565b600060208284031215620002dc57620002db62000259565b5b6000620002ec84828501620002ac565b91505092915050565b600081519050919050565b7f4e487b7100000000000000000000000000000000000000000000000000000000600052604160045260246000fd5b7f4e487b7100000000000000000000000000000000000000000000000000000000600052602260045260246000fd5b600060028204905060018216806200037757607f821691505b6020821081036200038d576200038c6200032f565b5b50919050565b60008190508160005260206000209050919050565b60006020601f8301049050919050565b600082821b905092915050565b600060088302620003f77fffffffffffffffffffffffffffffffffffffffffffffffffffffffffffffffff82620003b8565b620004038683620003b8565b95508019841693508086168417925050509392505050565b6000819050919050565b6000819050919050565b6000620004506200044a62000444846200041b565b62000425565b6200041b565b9050919050565b6000819050919050565b6200046c836200042f565b620004846200047b8262000457565b848454620003c5565b825550505050565b600090565b6200049b6200048c565b620004a881848462000461565b505050565b5b81811015620004d057620004c460008262000491565b600181019050620004ae565b5050565b601f8211156200051f57620004e98162000393565b620004f484620003a8565b8101602085101562000504578190505b6200051c6200051385620003a8565b830182620004ad565b50505b505050565b600082821c905092915050565b6000620005446000198460080262000524565b1980831691505092915050565b60006200055f838362000531565b9150826002028217905092915050565b6200057a82620002f5565b67ffffffffffffffff81111562000596576200059562000300565b5b620005a282546200035e565b620005af828285620004d4565b600060209050601f831160018114620005e75760008415620005d2578287015190505b620005de858262000551565b8655506200064e565b601f198416620005f78662000393565b60005b828110156200062157848901518255600182019150602085019450602081019050620005fa565b868310156200064157848901516200063d601f89168262000531565b8355505b6001600288020188555050505b505050505050565b62000661816200027e565b82525050565b60006020820190506200067e600083018462000656565b92915050565b61317780620006946000396000f3fe6080604052600436106101c25760003560e01c80635c975abb116100f75780638da5cb5b11610095578063bcc9ca5b11610064578063bcc9ca5b1461060b578063c87b56dd14610636578063e985e9c514610673578063f2fde38b146106b0576101c2565b80638da5cb5b1461056357806395d89b411461058e578063a22cb465146105b9578063b88d4fde146105e2576101c2565b8063715018a6116100d1578063715018a6146104e357806375895b13146104fa5780638456cb5914610523578063866009991461053a576101c2565b80635c975abb1461043e5780636352211e1461046957806370a08231146104a6576101c2565b80632a5c792a1161016457806340398d671161013e57806340398d671461037257806342842e0e146103af5780634f6ccce7146103d857806351cff8d914610415576101c2565b80632a5c792a146102f35780632f745c591461031e5780633f4ba83a1461035b576101c2565b8063095ea7b3116101a0578063095ea7b31461026c57806318160ddd1461029557806323b872dd146102c057806326092b83146102e9576101c2565b806301ffc9a7146101c757806306fdde0314610204578063081812fc1461022f575b600080fd5b3480156101d357600080fd5b506101ee60048036038101906101e9919061269d565b6106d9565b6040516101fb91906126e5565b60405180910390f35b34801561021057600080fd5b506102196106eb565b6040516102269190612790565b60405180910390f35b34801561023b57600080fd5b50610256600480360381019061025191906127e8565b61077d565b6040516102639190612856565b60405180910390f35b34801561027857600080fd5b50610293600480360381019061028e919061289d565b610799565b005b3480156102a157600080fd5b506102aa6107af565b6040516102b791906128ec565b60405180910390f35b3480156102cc57600080fd5b506102e760048036038101906102e29190612907565b6107bc565b005b6102f16108be565b005b3480156102ff57600080fd5b50610308610980565b6040516103159190612a18565b60405180910390f35b34801561032a57600080fd5b506103456004803603810190610340919061289d565b610a2a565b60405161035291906128ec565b60405180910390f35b34801561036757600080fd5b50610370610ad3565b005b34801561037e57600080fd5b5061039960048036038101906103949190612a3a565b610ae5565b6040516103a69190612a18565b60405180910390f35b3480156103bb57600080fd5b506103d660048036038101906103d19190612907565b610b93565b005b3480156103e457600080fd5b506103ff60048036038101906103fa91906127e8565b610bb3565b60405161040c91906128ec565b60405180910390f35b34801561042157600080fd5b5061043c60048036038101906104379190612a3a565b610c29565b005b34801561044a57600080fd5b50610453610c81565b60405161046091906126e5565b60405180910390f35b34801561047557600080fd5b50610490600480360381019061048b91906127e8565b610c98565b60405161049d9190612856565b60405180910390f35b3480156104b257600080fd5b506104cd60048036038101906104c89190612a3a565b610caa565b6040516104da91906128ec565b60405180910390f35b3480156104ef57600080fd5b506104f8610d64565b005b34801561050657600080fd5b50610521600480360381019061051c91906127e8565b610d78565b005b34801561052f57600080fd5b50610538610daa565b005b34801561054657600080fd5b50610561600480360381019061055c9190612a93565b610dbc565b005b34801561056f57600080fd5b50610578610de1565b6040516105859190612856565b60405180910390f35b34801561059a57600080fd5b506105a3610e0b565b6040516105b09190612790565b60405180910390f35b3480156105c557600080fd5b506105e060048036038101906105db9190612ac0565b610e9d565b005b3480156105ee57600080fd5b5061060960048036038101906106049190612c35565b610eb3565b005b34801561061757600080fd5b50610620610ed0565b60405161062d91906126e5565b60405180910390f35b34801561064257600080fd5b5061065d600480360381019061065891906127e8565b610ee3565b60405161066a9190612790565b60405180910390f35b34801561067f57600080fd5b5061069a60048036038101906106959190612cb8565b610f4c565b6040516106a791906126e5565b60405180910390f35b3480156106bc57600080fd5b506106d760048036038101906106d29190612a3a565b610fe0565b005b60006106e482611066565b9050919050565b6060600080546106fa90612d27565b80601f016020809104026020016040519081016040528092919081815260200182805461072690612d27565b80156107735780601f1061074857610100808354040283529160200191610773565b820191906000526020600020905b81548152906001019060200180831161075657829003601f168201915b5050505050905090565b6000610788826110e0565b5061079282611168565b9050919050565b6107ab82826107a66111a5565b6111ad565b5050565b6000600880549050905090565b600073ffffffffffffffffffffffffffffffffffffffff168273ffffffffffffffffffffffffffffffffffffffff160361082e5760006040517f64a0ae920000000000000000000000000000000000000000000000000000000081526004016108259190612856565b60405180910390fd5b6000610842838361083d6111a5565b6111bf565b90508373ffffffffffffffffffffffffffffffffffffffff168173ffffffffffffffffffffffffffffffffffffffff16146108b8578382826040517f64283d7b0000000000000000000000000000000000000000000000000000000081526004016108af93929190612d58565b60405180910390fd5b50505050565b600d60009054906101000a900460ff1661090d576040517f08c379a000000000000000000000000000000000000000000000000000000000815260040161090490612ddb565b60405180910390fd5b600c546109186107af565b10610958576040517f08c379a000000000000000000000000000000000000000000000000000000000815260040161094f90612e47565b60405180910390fd5b6000600b600081548092919061096d90612e96565b91905055905061097d33826111d5565b50565b6060600061098c6107af565b905060008167ffffffffffffffff8111156109aa576109a9612b0a565b5b6040519080825280602002602001820160405280156109d85781602001602082028036833780820191505090505b50905060005b82811015610a21576109ef81610bb3565b828281518110610a0257610a01612ede565b5b6020026020010181815250508080610a1990612e96565b9150506109de565b50809250505090565b6000610a3583610caa565b8210610a7a5782826040517fa57d13dc000000000000000000000000000000000000000000000000000000008152600401610a71929190612f0d565b60405180910390fd5b600660008473ffffffffffffffffffffffffffffffffffffffff1673ffffffffffffffffffffffffffffffffffffffff168152602001908152602001600020600083815260200190815260200160002054905092915050565b610adb6111f3565b610ae361127a565b565b60606000610af283610caa565b905060008167ffffffffffffffff811115610b1057610b0f612b0a565b5b604051908082528060200260200182016040528015610b3e5781602001602082028036833780820191505090505b50905060005b82811015610b8857610b568582610a2a565b828281518110610b6957610b68612ede565b5b6020026020010181815250508080610b8090612e96565b915050610b44565b508092505050919050565b610bae83838360405180602001604052806000815250610eb3565b505050565b6000610bbd6107af565b8210610c03576000826040517fa57d13dc000000000000000000000000000000000000000000000000000000008152600401610bfa929190612f0d565b60405180910390fd5b60088281548110610c1757610c16612ede565b5b90600052602060002001549050919050565b610c316111f3565b60004790508173ffffffffffffffffffffffffffffffffffffffff166108fc829081150290604051600060405180830381858888f19350505050158015610c7c573d6000803e3d6000fd5b505050565b6000600a60009054906101000a900460ff16905090565b6000610ca3826110e0565b9050919050565b60008073ffffffffffffffffffffffffffffffffffffffff168273ffffffffffffffffffffffffffffffffffffffff1603610d1d5760006040517f89c62b64000000000000000000000000000000000000000000000000000000008152600401610d149190612856565b60405180910390fd5b600360008373ffffffffffffffffffffffffffffffffffffffff1673ffffffffffffffffffffffffffffffffffffffff168152602001908152602001600020549050919050565b610d6c6111f3565b610d7660006112dd565b565b610d806111f3565b60005b81811015610da657610d936108be565b8080610d9e90612e96565b915050610d83565b5050565b610db26111f3565b610dba6113a3565b565b610dc46111f3565b80600d60006101000a81548160ff02191690831515021790555050565b6000600a60019054906101000a900473ffffffffffffffffffffffffffffffffffffffff16905090565b606060018054610e1a90612d27565b80601f0160208091040260200160405190810160405280929190818152602001828054610e4690612d27565b8015610e935780601f10610e6857610100808354040283529160200191610e93565b820191906000526020600020905b815481529060010190602001808311610e7657829003601f168201915b5050505050905090565b610eaf610ea86111a5565b8383611406565b5050565b610ebe8484846107bc565b610eca84848484611575565b50505050565b600d60009054906101000a900460ff1681565b6060610eee826110e0565b506000610ef961172c565b90506000815111610f195760405180602001604052806000815250610f44565b80610f238461174c565b604051602001610f34929190612f72565b6040516020818303038152906040525b915050919050565b6000600560008473ffffffffffffffffffffffffffffffffffffffff1673ffffffffffffffffffffffffffffffffffffffff16815260200190815260200160002060008373ffffffffffffffffffffffffffffffffffffffff1673ffffffffffffffffffffffffffffffffffffffff16815260200190815260200160002060009054906101000a900460ff16905092915050565b610fe86111f3565b600073ffffffffffffffffffffffffffffffffffffffff168173ffffffffffffffffffffffffffffffffffffffff160361105a5760006040517f1e4fbdf70000000000000000000000000000000000000000000000000000000081526004016110519190612856565b60405180910390fd5b611063816112dd565b50565b60007f780e9d63000000000000000000000000000000000000000000000000000000007bffffffffffffffffffffffffffffffffffffffffffffffffffffffff1916827bffffffffffffffffffffffffffffffffffffffffffffffffffffffff191614806110d957506110d88261181a565b5b9050919050565b6000806110ec836118fc565b9050600073ffffffffffffffffffffffffffffffffffffffff168173ffffffffffffffffffffffffffffffffffffffff160361115f57826040517f7e27328900000000000000000000000000000000000000000000000000000000815260040161115691906128ec565b60405180910390fd5b80915050919050565b60006004600083815260200190815260200160002060009054906101000a900473ffffffffffffffffffffffffffffffffffffffff169050919050565b600033905090565b6111ba8383836001611939565b505050565b60006111cc848484611afe565b90509392505050565b6111ef828260405180602001604052806000815250611b1c565b5050565b6111fb6111a5565b73ffffffffffffffffffffffffffffffffffffffff16611219610de1565b73ffffffffffffffffffffffffffffffffffffffff16146112785761123c6111a5565b6040517f118cdaa700000000000000000000000000000000000000000000000000000000815260040161126f9190612856565b60405180910390fd5b565b611282611b38565b6000600a60006101000a81548160ff0219169083151502179055507f5db9ee0a495bf2e6ff9c91a7834c1ba4fdd244a5e8aa4e537bd38aeae4b073aa6112c66111a5565b6040516112d39190612856565b60405180910390a1565b6000600a60019054906101000a900473ffffffffffffffffffffffffffffffffffffffff16905081600a60016101000a81548173ffffffffffffffffffffffffffffffffffffffff021916908373ffffffffffffffffffffffffffffffffffffffff1602179055508173ffffffffffffffffffffffffffffffffffffffff168173ffffffffffffffffffffffffffffffffffffffff167f8be0079c531659141344cd1fd0a4f28419497f9722a3daafe3b4186f6b6457e060405160405180910390a35050565b6113ab611b78565b6001600a60006101000a81548160ff0219169083151502179055507f62e78cea01bee320cd4e420270b5ea74000d11b0c9f74754ebdbfc544b05a2586113ef6111a5565b6040516113fc9190612856565b60405180910390a1565b600073ffffffffffffffffffffffffffffffffffffffff168273ffffffffffffffffffffffffffffffffffffffff160361147757816040517f5b08ba1800000000000000000000000000000000000000000000000000000000815260040161146e9190612856565b60405180910390fd5b80600560008573ffffffffffffffffffffffffffffffffffffffff1673ffffffffffffffffffffffffffffffffffffffff16815260200190815260200160002060008473ffffffffffffffffffffffffffffffffffffffff1673ffffffffffffffffffffffffffffffffffffffff16815260200190815260200160002060006101000a81548160ff0219169083151502179055508173ffffffffffffffffffffffffffffffffffffffff168373ffffffffffffffffffffffffffffffffffffffff167f17307eab39ab6107e8899845ad3d59bd9653f200f220920489ca2b5937696c318360405161156891906126e5565b60405180910390a3505050565b60008373ffffffffffffffffffffffffffffffffffffffff163b1115611726578273ffffffffffffffffffffffffffffffffffffffff1663150b7a026115b96111a5565b8685856040518563ffffffff1660e01b81526004016115db9493929190612feb565b6020604051808303816000875af192505050801561161757506040513d601f19601f82011682018060405250810190611614919061304c565b60015b61169b573d8060008114611647576040519150601f19603f3d011682016040523d82523d6000602084013e61164c565b606091505b50600081510361169357836040517f64a0ae9200000000000000000000000000000000000000000000000000000000815260040161168a9190612856565b60405180910390fd5b805181602001fd5b63150b7a0260e01b7bffffffffffffffffffffffffffffffffffffffffffffffffffffffff1916817bffffffffffffffffffffffffffffffffffffffffffffffffffffffff19161461172457836040517f64a0ae9200000000000000000000000000000000000000000000000000000000815260040161171b9190612856565b60405180910390fd5b505b50505050565b606060405180606001604052806036815260200161310c60369139905090565b60606000600161175b84611bb9565b01905060008167ffffffffffffffff81111561177a57611779612b0a565b5b6040519080825280601f01601f1916602001820160405280156117ac5781602001600182028036833780820191505090505b509050600082602001820190505b60011561180f578080600190039150507f3031323334353637383961626364656600000000000000000000000000000000600a86061a8153600a858161180357611802613079565b5b049450600085036117ba575b819350505050919050565b60007f80ac58cd000000000000000000000000000000000000000000000000000000007bffffffffffffffffffffffffffffffffffffffffffffffffffffffff1916827bffffffffffffffffffffffffffffffffffffffffffffffffffffffff191614806118e557507f5b5e139f000000000000000000000000000000000000000000000000000000007bffffffffffffffffffffffffffffffffffffffffffffffffffffffff1916827bffffffffffffffffffffffffffffffffffffffffffffffffffffffff1916145b806118f557506118f482611d0c565b5b9050919050565b60006002600083815260200190815260200160002060009054906101000a900473ffffffffffffffffffffffffffffffffffffffff169050919050565b80806119725750600073ffffffffffffffffffffffffffffffffffffffff168273ffffffffffffffffffffffffffffffffffffffff1614155b15611aa6576000611982846110e0565b9050600073ffffffffffffffffffffffffffffffffffffffff168373ffffffffffffffffffffffffffffffffffffffff16141580156119ed57508273ffffffffffffffffffffffffffffffffffffffff168173ffffffffffffffffffffffffffffffffffffffff1614155b8015611a0057506119fe8184610f4c565b155b15611a4257826040517fa9fbf51f000000000000000000000000000000000000000000000000000000008152600401611a399190612856565b60405180910390fd5b8115611aa457838573ffffffffffffffffffffffffffffffffffffffff168273ffffffffffffffffffffffffffffffffffffffff167f8c5be1e5ebec7d5bd14f71427d1e84f3dd0314c0f7b2291e5b200ac8c7c3b92560405160405180910390a45b505b836004600085815260200190815260200160002060006101000a81548173ffffffffffffffffffffffffffffffffffffffff021916908373ffffffffffffffffffffffffffffffffffffffff16021790555050505050565b6000611b08611b78565b611b13848484611d76565b90509392505050565b611b268383611e93565b611b336000848484611575565b505050565b611b40610c81565b611b76576040517f8dfc202b00000000000000000000000000000000000000000000000000000000815260040160405180910390fd5b565b611b80610c81565b15611bb7576040517fd93c066500000000000000000000000000000000000000000000000000000000815260040160405180910390fd5b565b600080600090507a184f03e93ff9f4daa797ed6e38ed64bf6a1f0100000000000000008310611c17577a184f03e93ff9f4daa797ed6e38ed64bf6a1f0100000000000000008381611c0d57611c0c613079565b5b0492506040810190505b6d04ee2d6d415b85acef81000000008310611c54576d04ee2d6d415b85acef81000000008381611c4a57611c49613079565b5b0492506020810190505b662386f26fc100008310611c8357662386f26fc100008381611c7957611c78613079565b5b0492506010810190505b6305f5e1008310611cac576305f5e1008381611ca257611ca1613079565b5b0492506008810190505b6127108310611cd1576127108381611cc757611cc6613079565b5b0492506004810190505b60648310611cf45760648381611cea57611ce9613079565b5b0492506002810190505b600a8310611d03576001810190505b80915050919050565b60007f01ffc9a7000000000000000000000000000000000000000000000000000000007bffffffffffffffffffffffffffffffffffffffffffffffffffffffff1916827bffffffffffffffffffffffffffffffffffffffffffffffffffffffff1916149050919050565b600080611d84858585611f8c565b9050600073ffffffffffffffffffffffffffffffffffffffff168173ffffffffffffffffffffffffffffffffffffffff1603611dc857611dc3846121a6565b611e07565b8473ffffffffffffffffffffffffffffffffffffffff168173ffffffffffffffffffffffffffffffffffffffff1614611e0657611e0581856121ef565b5b5b600073ffffffffffffffffffffffffffffffffffffffff168573ffffffffffffffffffffffffffffffffffffffff1603611e4957611e4484612350565b611e88565b8473ffffffffffffffffffffffffffffffffffffffff168173ffffffffffffffffffffffffffffffffffffffff1614611e8757611e868585612421565b5b5b809150509392505050565b600073ffffffffffffffffffffffffffffffffffffffff168273ffffffffffffffffffffffffffffffffffffffff1603611f055760006040517f64a0ae92000000000000000000000000000000000000000000000000000000008152600401611efc9190612856565b60405180910390fd5b6000611f13838360006111bf565b9050600073ffffffffffffffffffffffffffffffffffffffff168173ffffffffffffffffffffffffffffffffffffffff1614611f875760006040517f73c6ac6e000000000000000000000000000000000000000000000000000000008152600401611f7e9190612856565b60405180910390fd5b505050565b600080611f98846118fc565b9050600073ffffffffffffffffffffffffffffffffffffffff168373ffffffffffffffffffffffffffffffffffffffff1614611fda57611fd98184866124ac565b5b600073ffffffffffffffffffffffffffffffffffffffff168173ffffffffffffffffffffffffffffffffffffffff161461206b5761201c600085600080611939565b6001600360008373ffffffffffffffffffffffffffffffffffffffff1673ffffffffffffffffffffffffffffffffffffffff168152602001908152602001600020600082825403925050819055505b600073ffffffffffffffffffffffffffffffffffffffff168573ffffffffffffffffffffffffffffffffffffffff16146120ee576001600360008773ffffffffffffffffffffffffffffffffffffffff1673ffffffffffffffffffffffffffffffffffffffff168152602001908152602001600020600082825401925050819055505b846002600086815260200190815260200160002060006101000a81548173ffffffffffffffffffffffffffffffffffffffff021916908373ffffffffffffffffffffffffffffffffffffffff160217905550838573ffffffffffffffffffffffffffffffffffffffff168273ffffffffffffffffffffffffffffffffffffffff167fddf252ad1be2c89b69c2b068fc378daa952ba7f163c4a11628f55a4df523b3ef60405160405180910390a4809150509392505050565b6008805490506009600083815260200190815260200160002081905550600881908060018154018082558091505060019003906000526020600020016000909190919091505550565b60006121fa83610caa565b90506000600760008481526020019081526020016000205490508181146122df576000600660008673ffffffffffffffffffffffffffffffffffffffff1673ffffffffffffffffffffffffffffffffffffffff168152602001908152602001600020600084815260200190815260200160002054905080600660008773ffffffffffffffffffffffffffffffffffffffff1673ffffffffffffffffffffffffffffffffffffffff168152602001908152602001600020600084815260200190815260200160002081905550816007600083815260200190815260200160002081905550505b6007600084815260200190815260200160002060009055600660008573ffffffffffffffffffffffffffffffffffffffff1673ffffffffffffffffffffffffffffffffffffffff16815260200190815260200160002060008381526020019081526020016000206000905550505050565b6000600160088054905061236491906130a8565b905060006009600084815260200190815260200160002054905060006008838154811061239457612393612ede565b5b9060005260206000200154905080600883815481106123b6576123b5612ede565b5b906000526020600020018190555081600960008381526020019081526020016000208190555060096000858152602001908152602001600020600090556008805480612405576124046130dc565b5b6001900381819060005260206000200160009055905550505050565b6000600161242e84610caa565b61243891906130a8565b905081600660008573ffffffffffffffffffffffffffffffffffffffff1673ffffffffffffffffffffffffffffffffffffffff168152602001908152602001600020600083815260200190815260200160002081905550806007600084815260200190815260200160002081905550505050565b6124b7838383612570565b61256b57600073ffffffffffffffffffffffffffffffffffffffff168373ffffffffffffffffffffffffffffffffffffffff160361252c57806040517f7e27328900000000000000000000000000000000000000000000000000000000815260040161252391906128ec565b60405180910390fd5b81816040517f177e802f000000000000000000000000000000000000000000000000000000008152600401612562929190612f0d565b60405180910390fd5b505050565b60008073ffffffffffffffffffffffffffffffffffffffff168373ffffffffffffffffffffffffffffffffffffffff161415801561262857508273ffffffffffffffffffffffffffffffffffffffff168473ffffffffffffffffffffffffffffffffffffffff1614806125e957506125e88484610f4c565b5b8061262757508273ffffffffffffffffffffffffffffffffffffffff1661260f83611168565b73ffffffffffffffffffffffffffffffffffffffff16145b5b90509392505050565b6000604051905090565b600080fd5b600080fd5b60007fffffffff0000000000000000000000000000000000000000000000000000000082169050919050565b61267a81612645565b811461268557600080fd5b50565b60008135905061269781612671565b92915050565b6000602082840312156126b3576126b261263b565b5b60006126c184828501612688565b91505092915050565b60008115159050919050565b6126df816126ca565b82525050565b60006020820190506126fa60008301846126d6565b92915050565b600081519050919050565b600082825260208201905092915050565b60005b8381101561273a57808201518184015260208101905061271f565b60008484015250505050565b6000601f19601f8301169050919050565b600061276282612700565b61276c818561270b565b935061277c81856020860161271c565b61278581612746565b840191505092915050565b600060208201905081810360008301526127aa8184612757565b905092915050565b6000819050919050565b6127c5816127b2565b81146127d057600080fd5b50565b6000813590506127e2816127bc565b92915050565b6000602082840312156127fe576127fd61263b565b5b600061280c848285016127d3565b91505092915050565b600073ffffffffffffffffffffffffffffffffffffffff82169050919050565b600061284082612815565b9050919050565b61285081612835565b82525050565b600060208201905061286b6000830184612847565b92915050565b61287a81612835565b811461288557600080fd5b50565b60008135905061289781612871565b92915050565b600080604083850312156128b4576128b361263b565b5b60006128c285828601612888565b92505060206128d3858286016127d3565b9150509250929050565b6128e6816127b2565b82525050565b600060208201905061290160008301846128dd565b92915050565b6000806000606084860312156129205761291f61263b565b5b600061292e86828701612888565b935050602061293f86828701612888565b9250506040612950868287016127d3565b9150509250925092565b600081519050919050565b600082825260208201905092915050565b6000819050602082019050919050565b61298f816127b2565b82525050565b60006129a18383612986565b60208301905092915050565b6000602082019050919050565b60006129c58261295a565b6129cf8185612965565b93506129da83612976565b8060005b83811015612a0b5781516129f28882612995565b97506129fd836129ad565b9250506001810190506129de565b5085935050505092915050565b60006020820190508181036000830152612a3281846129ba565b905092915050565b600060208284031215612a5057612a4f61263b565b5b6000612a5e84828501612888565b91505092915050565b612a70816126ca565b8114612a7b57600080fd5b50565b600081359050612a8d81612a67565b92915050565b600060208284031215612aa957612aa861263b565b5b6000612ab784828501612a7e565b91505092915050565b60008060408385031215612ad757612ad661263b565b5b6000612ae585828601612888565b9250506020612af685828601612a7e565b9150509250929050565b600080fd5b600080fd5b7f4e487b7100000000000000000000000000000000000000000000000000000000600052604160045260246000fd5b612b4282612746565b810181811067ffffffffffffffff82111715612b6157612b60612b0a565b5b80604052505050565b6000612b74612631565b9050612b808282612b39565b919050565b600067ffffffffffffffff821115612ba057612b9f612b0a565b5b612ba982612746565b9050602081019050919050565b82818337600083830152505050565b6000612bd8612bd384612b85565b612b6a565b905082815260208101848484011115612bf457612bf3612b05565b5b612bff848285612bb6565b509392505050565b600082601f830112612c1c57612c1b612b00565b5b8135612c2c848260208601612bc5565b91505092915050565b60008060008060808587031215612c4f57612c4e61263b565b5b6000612c5d87828801612888565b9450506020612c6e87828801612888565b9350506040612c7f878288016127d3565b925050606085013567ffffffffffffffff811115612ca057612c9f612640565b5b612cac87828801612c07565b91505092959194509250565b60008060408385031215612ccf57612cce61263b565b5b6000612cdd85828601612888565b9250506020612cee85828601612888565b9150509250929050565b7f4e487b7100000000000000000000000000000000000000000000000000000000600052602260045260246000fd5b60006002820490506001821680612d3f57607f821691505b602082108103612d5257612d51612cf8565b5b50919050565b6000606082019050612d6d6000830186612847565b612d7a60208301856128dd565b612d876040830184612847565b949350505050565b7f4d696e7420696d706f737369626c6520706f7572206c65206d6f6d656e742e00600082015250565b6000612dc5601f8361270b565b9150612dd082612d8f565b602082019050919050565b60006020820190508181036000830152612df481612db8565b9050919050565b7f4c696d697465206d6178696d616c652061747465696e74652e00000000000000600082015250565b6000612e3160198361270b565b9150612e3c82612dfb565b602082019050919050565b60006020820190508181036000830152612e6081612e24565b9050919050565b7f4e487b7100000000000000000000000000000000000000000000000000000000600052601160045260246000fd5b6000612ea1826127b2565b91507fffffffffffffffffffffffffffffffffffffffffffffffffffffffffffffffff8203612ed357612ed2612e67565b5b600182019050919050565b7f4e487b7100000000000000000000000000000000000000000000000000000000600052603260045260246000fd5b6000604082019050612f226000830185612847565b612f2f60208301846128dd565b9392505050565b600081905092915050565b6000612f4c82612700565b612f568185612f36565b9350612f6681856020860161271c565b80840191505092915050565b6000612f7e8285612f41565b9150612f8a8284612f41565b91508190509392505050565b600081519050919050565b600082825260208201905092915050565b6000612fbd82612f96565b612fc78185612fa1565b9350612fd781856020860161271c565b612fe081612746565b840191505092915050565b60006080820190506130006000830187612847565b61300d6020830186612847565b61301a60408301856128dd565b818103606083015261302c8184612fb2565b905095945050505050565b60008151905061304681612671565b92915050565b6000602082840312156130625761306161263b565b5b600061307084828501613037565b91505092915050565b7f4e487b7100000000000000000000000000000000000000000000000000000000600052601260045260246000fd5b60006130b3826127b2565b91506130be836127b2565b92508282039050818111156130d6576130d5612e67565b5b92915050565b7f4e487b7100000000000000000000000000000000000000000000000000000000600052603160045260246000fdfe697066733a2f2f516d62464e75767a59534e36377164354a524c4c6a664e35646a776e696a79733257624e51646b706966664544432fa2646970667358221220dc4a0c4f76a1526e71bb8deb8e44a738e908a0f2cc363bd022010f9efb4dab7464736f6c63430008140033",
  "linkReferences": {},
  "deployedLinkReferences": {}
}